:100000000C9434000C943E000C943E000C943E0082
:100010000C943E000C943E000C943E000C943E0068
:100020000C943E000C943E000C943E000C943E0058
:100030000C943E000C943E000C943E000C943E0048
:100040000C943E000C943E000C943E000C943E0038
:100050000C943E000C943E000C943E000C943E0028
:100060000C943E000C943E0011241FBECFEFD8E04C
:10007000DEBFCDBF0E9440000C9459000C940000DC
:10008000509A20983898289A409A189B02C0309924
:100090000EC0189B02C0309B0AC0189902C030994C
:1000A00006C01899F2CF3099F0CF589AEECF5898F1
:0600B000ECCFF894FFCF35
:00000001FF
